:020000040800F2
:10000000480D0020E1000008F5140008850C0008E8
:1000100000000000000000000000000000000000E0
:10002000000000000000000000000000951500081E
:10003000000000000000000039150008C915000884
:10004000F3000008F3000008F3000008F3000008C4
:10005000F3000008F3000008F3000008D10A0008CC
:1000600000000000A10A0008F3000008F3000008E7
:10007000F3000008F3000008F3000008000000008F
:10008000852A0008F300000800000000F3000008C3
:10009000F3000008F3000008F3000008F300000874
:1000A000F3000008F3000008F3000008F300000864
:1000B000F300000800000000000000000000000045
:1000C000F300000800000000F30000080348854624
:1000D00000F0C8FB00480047ED370008480D00203D
:1000E0000448804704480047FEE7FEE7FEE7FEE7D6
:1000F000FEE7FEE7CD150008CD000008F8B5024682
:100100004A40D40F42004B0052085B089A4202D288
:100110000246084611464A0023D0C30D4A00DDB20C
:10012000120EAD1A202D35DA49020126490AF605CC
:100130008A19002C00D0524220214F1B1146B94091
:100140002A411018C20D9A4221D0002C17D0012D3F
:1001500008DCDA05801AD20F8019D207DBB200F072
:1001600082F9F8BDDA05801A012340001B06C01889
:1001700080185A428018CA0F1043490007E0490806
:10018000C2071143DA05801A80194008801800F070
:1001900062F9F8BD61000122511A001BF7E7012244
:1001A000D2075140AAE70122D2075040A6E70246F3
:1001B00070B54A40D30FDB0740002DD04A002AD04B
:1001C000010E140E000212020919400A520A841884
:1001D000E50104465443000A120A2E045043A419B0
:1001E0004219200CC543AA18120C0125AD03521C5C
:1001F000521912047F39240400D0521C104301D438
:100200004000491EC2B20C06C0092018401C40081C
:10021000802A02D003E0002070BD40084000002981
:1002200000DA0020184370BD70B502464A40D50F71
:1002300040004A00ED0740085208002814D0002A68
:1002400012D0C40DD30D41020120C0055202490A4B
:10025000520AE41A091812187D34914201D3641C21
:1002600000E04900002C01DA002070BD002391421B
:1002700001D3891A0343400849000028F7D1002917
:100280000AD0914202D10121C90705E0914201D271
:10029000012101E00121C943E005C018401900F027
:1002A000DAF870BD0122D207002800DB101A0029FD
:1002B00000DB511A814201D80120704700207047AD
:1002C0000122D207002800DB101A002900DB511A96
:1002D000814201D201207047002070470122D207DD
:1002E000002800DB101A002900DB511A814201D3DB
:1002F000012070470020704710B5002904DB0C4630
:100300000121C9074042A141002B04DB1C46012307
:10031000DB075242A341801A994101D3012010BD4D
:10032000002010BD10B5002904DB0C460121C907CF
:100330004042A141002B04DB1C460123DB07524253
:10034000A341801A994101D2012010BD002010BDA7
:10035000C217C10F504010B54018CA07962300219C
:1003600000F081F810BD10B500229623114600F070
:100370007AF810BDC20F410040020123400ADB059C
:10038000D207090EC0187F2901DA0020704796298C
:1003900003DC9623591AC84001E096398840002AA8
:1003A000F4D040427047410040020122400AD20589
:1003B000090E80187F2901DA00207047962903DC96
:1003C0009622511AC8407047963988407047C20F2C
:1003D000D207400040080BD0C10D0723DB01C9182C
:1003E00040020905400A1143C20840071143704703
:1003F000002001467047F0B51FB40646002082B0C9
:1004000005464024019100901BE0019922460F46C9
:10041000304600F06EFA049A059B801A994110D379
:1004200010461946224600F054FA361A8F410197B9
:10043000224601200021009F00F04BFA38184D4160
:1004400000902046641E0028DFDC019B00982946AE
:10045000324607B0F0BD002904DA401C490001D142
:1004600040084000704770B40024050C05D11024EA
:10047000000402D1002921D01124050E01D100026F
:100480000834050F01D10001241D850F01D1800022
:10049000A41C002801DB4000641C002908D0202592
:1004A0002E1B0D46F540A14000D0012129430843F1
:1004B00001061B1B000ADB1D02D5002070BC704723
:1004C000DB05181880180029F8DA401C4900F5D11E
:1004D00070BC400840007047F0B5074608465840D9
:1004E00087B0C00F049048000E46590040084908E4
:1004F000BC1A884105D2384631461E4617460B467F
:1005000002465800400810434CD0300D039040057F
:100510005900400D490D0590401A0290402872DAAA
:1005200018030121000B090508430190049800926B
:10053000002805D001995242002088410092019084
:10054000029840210A1A0199009800F0C2F9054664
:100550000C466B4607CB00F0DDF9C0197141039AD8
:100560000E0D0023D71756401A467A40164344D042
:10057000049A002A2DD0029A012A039A15DC12054A
:10058000C01A914101263605001C7141D20F059E0B
:10059000D2070093019202962A46234600F0DAF928
:1005A00007B0F0BD38463146FAE71605224A0F4635
:1005B000B218C01AB74101210905001C4F410018AB
:1005C0007F41114618187941E20F10436D196441BB
:1005D00013E0E2076D0815436408C2071443039A49
:1005E00001261205C01A91413605001C7141CE0743
:1005F000400830434908C01851412A46234600F0BC
:100600009CF9CDE7FFE7049801224000C117121AB8
:1006100000238B4104983146C417381AA141EEE7F4
:1006200030B40124E407634030BC55E730B4012402
:10063000E407614030BC4FE70000E0FFF0B51FB4B5
:1006400088B00B990998002448400999C00F4900C7
:1006500049080991C0070B990090490049080B917E
:1006600009990898A64608431CD00B990A98084394
:1006700018D0099801244000420D4800410D099806
:1006800024050003000B204309900B980003000B86
:1006900020430B9050181C4940180022019014462A
:1006A000104605E0002001460DB0F0BD032801DA38
:1006B000034600E003239C46C11A0AAE0AE05F002D
:1006C00008ADED5B4F00F75B7D430027AA187C4126
:1006D000491C5B1E6145F2DD410004AB5A52210406
:1006E000120C0A43240C401C0828DFDB01980290FE
:1006F0000099704601910090059B049A079906980D
:1007000000F028F9D0E700000DFCFFFFF0B50C4623
:100710005C4085B0E40FE40703944C0000266408B5
:1007200059009446490802460296224321D0624667
:100730000A431ED06200570D4A000E032303550DD5
:10074000012402462C492405781B1B0B360B40184C
:1007500023432643614600901C46501AB44103D3FC
:100760000098401C009002E0921800985B4100281D
:1007700003DA0020014605B0F0BD00200121090583
:100780000746864611E064461D46141BB54106D354
:100790006546521BB341744607430C43A646CD073A
:1007A00040084908284392185B4105460D43EAD1A9
:1007B0001046184313D06046194650407140084314
:1007C00006D06046101AB34106D20122002306E08B
:1007D00000220123DB0702E00122D24353100098DC
:1007E00074460105381C6141029C039D0019694152
:1007F00000F0A3F8BFE70000FD0300004A00090372
:100800000123090B1B0519430A4B10B5520D9A42DF
:1008100002DA0020014610BD064B34339A4203DC55
:100820009A1A00F066F810BD034BD21800F051F888
:1008300010BD0000FF030000CDFBFFFF10B5002935
:1008400004DB0124E40740428C412146002B04DBF9
:100850001C460123DB075242A341994200D190423A
:1008600010BD00001CB509480090094801900546DC
:100870000126009C05E0E36807CC33430C3C984715
:100880001034AC42F7D3FFF725FC00007CCA000807
:100890009CCA000870B50446002903D0002020221D
:1008A000012310E0002801D00020C043C046C0460C
:1008B0000DE02546D5408D4205D30D469540641B7D
:1008C0001D46954040191546521E002DF1DC21466B
:1008D00070BD10B5202A04DB0146203A914000206B
:1008E00010BD914020239C1A0346E34019439040D9
:1008F00010BD10B5202A04DB0846203AD040002164
:1009000010BD0B46D340D0402024A21A914008438A
:10091000194610BD10B5202A06DBCB170846203A31
:100920001041C1170B4306E00B461341D040202471
:10093000A21A91400843194610BD10B5002B08DAE1
:100940000024401C614192185B411A4301D14008C8
:10095000400010BDF0B51FB482B005460C0003D0B6
:10096000084604F0B3FB02E004F0B0FB203002467E
:10097000009021462846FFF7ACFF049B059A0446E9
:100980000F4618431143084314D0184610431BD098
:10099000009840210A1A18460599FFF7AAFF054654
:1009A0000E46009A05990498FFF793FF084305D077
:1009B000012004E02046394607B0F0BD0020C117F1
:1009C00005430E432C43374300990E986305401AA4
:1009D0007905E40A00220C43FD0A0A3002D5002002
:1009E0000146E9E70105101969410C9C0D9D0019AC
:1009F0006941FFF7A2FFDFE780B588B040F2005001
:100A000003F0B4FA09200021009103F045F80098A2
:100A100002F07EFB00981149019101A90876984ADD
:100A2000039201224A7640F20012029240F2004202
:100A30000492887640F22C12059242F2000206924D
:100A400002F092FB009802F055FB009802F044FB84
:100A50000098022102F012FC08B080BD4C24014035
:100A600080B582B0014601A801700078009001288D
:100A700004D0FFE70098022806D00BE0074844F2B4
:100A8000000102F009FE06E0044848F2000102F00D
:100A900003FE00E0FFE702B080BDC046000800484A
:100AA00080B582B00020022102F00AFC68B1FFE7A5
:100AB00062490120019008700020009002F0FEFAC7
:100AC0000098019902F0EAFBFFE702B080BDC04642
:100AD00080B5102002F062FD002845D0FFE7C8482D
:100AE000082102F0E1FDE8B9FFE7052002F0A6FACF
:100AF000514900200870C248082102F0D5FD80B994
:100B0000FFE74C480178491C01700078022807DB98
:100B1000FFE7484900200870484906204870FFE771
:100B2000FFE71DE0052002F089FA42490020087025
:100B3000B348082102F0B8FD012810D1FFE73E4874
:100B40000178491C01700078022807DBFFE73A4969
:100B500000200870394905204870FFE7FFE7FFE7EC
:100B6000102002F013FDFFE740F2002002F016FD16
:100B700098B1FFE7052002F061FAF84840F2002141
:100B800002F092FD20B9FFE72C4904204870FFE7EE
:100B900040F2002002F0FAFCFFE742F2000002F00F
:100BA000FDFC98B1FFE7052002F048FAEB4842F25D
:100BB000000102F079FD20B9FFE7204901204870CB
:100BC000FFE742F2000002F0E1FCFFE744F2000020
:100BD00002F0E4FC98B1FFE7052002F02FFADF48AD
:100BE00044F2000102F060FD20B9FFE71349022042
:100BF0004870FFE744F2000002F0C8FCFFE748F24B
:100C0000000002F0CBFC98B1FFE7052002F016FAD5
:100C1000D24848F2000102F047FD20B9FFE707493A
:100C200003204870FFE748F2000002F0AFFCFFE746
:100C300080BDC04609000020080000207802002086
:100C400082B0014601A801806A4600211180008817
:100C500040F22D11884204D3FFE701A9002008804B
:100C6000FFE701A908884000054A135A6846038037
:100C700009884B000021D152008802B07047C0465D
:100C80000A000020FFE7FEE780B584B003A900203A
:100C90000870FFE703A8007804283EDCFFE702A9FC
:100CA00000200870FFE702A800787F282FDCFFE70C
:100CB00001A900200870FFE701A800789F2820DC28
:100CC000FFE701A80078C1011548401802A909787A
:100CD000405C40B1FFE701A8007802A90978774A93
:100CE00000F0B7FD07E001A8007802A9097800220A
:100CF00000F0AFFDFFE7FFE70198401C01A9087075
:100D0000DAE7FFE70298401C02A90870CBE7FFE78B
:100D10000398401C03A90870BCE704B080BDC0461E
:100D20000276000880B586B0E94803F01FF9214833
:100D300003F01CF90920019002F0D6FE0198C006CC
:100D40000321039100220292082302F0C2FC022038
:100D50000121059102F018F9029940F2001002F009
:100D600013F9029940F2004002F00EF9029801F0E6
:100D7000ADFF0599084601F075FF02980399072217
:100D8000049202F033F804990598490402F006F839
:100D90000599084601F0C4FF01F0B6FF059802F07E
:100DA0004DF901F043FF01F0A7FF059802F0CCF8E0
:100DB00006B080BD0906000080B584B0664803F027
:100DC000D5F840F2006003F0D1F8644800210291A8
:100DD000012201921023039302F07BFC07200321E0
:100DE00002F05AFE0198042103F03EFA029A039899
:100DF000114602F05BFB039802F0C8FB04B080BD13
:100E00000004004880B58EB0F34803F0AFF82848DE
:100E100003F0ACF80920C0060090022106910022E0
:100E200004924023019302F054FC0098019B049922
:100E3000032202F095FC0098019A0121039102F02F
:100E4000C3FB0699102002F027FE1A48079003F012
:100E500001FE08A8029004F029F80299049A079864
:100E6000154B0B804A808A80144B0A93CA8003F08A
:100E700077FE0CA8059003F08AFB039B0499059A62
:100E80000798118053809180D18003F0E7FE079886
:100E900003F0F0FA0699079803F0C9FF069907983E
:100EA00003F0BBFF079803F052FE0EB080BDC046B2
:100EB0000107000000040040CF020000FFFF000017
:100EC00080B586B0244803F051F8244800210091F1
:100ED00001220192224B02F0FCFB0720032102F0C9
:100EE000DBFD0198092103F0BFF901980D2103F002
:100EF000BBF901980E2103F0B7F901980F2103F017
:100F0000B3F90099019A40F20020029002F0CEFA63
:100F10000099019A42F20000039002F0C7FA00998A
:100F2000019A44F20000049002F0C0FA0099019A7C
:100F300048F20000059002F0B9FA029802F026FB90
:100F4000039802F023FB049802F020FB059802F0BE
:100F50001DFB06B080BDC04612050000000400481D
:100F600008E2000080B586B0154802F0FFFF154882
:100F70000190012105910022029244F200030093A6
:100F800002F0A7FB0198029A059948F20003049326
:100F900002F09FFB009B019802990322039202F04A
:100FA000DFFB01980299039A049B02F0D9FB059894
:100FB000FFF756FD0220FFF753FD06B080BDC04687
:100FC000130500000008004881B00090009900203F
:100FD0000870009A07219160009948700099887004
:100FE00000990861009A40F2E8319180009B40F23C
:100FF000F412DA80009AD1600099486101B070471C
:1010000010B592B011901091A14802F0AFFF40F2DC
:10101000106002F0ABFF0920C0060190022104918C
:10102000002206920423029302F053FB0198029BD4
:101030000699032202F094FB0198029A069902F0A5
:10104000C3FA2448089003F005FD09A8039003F0B3
:101050002DFF0399069A089847230B804A808A80BF
:10106000119B0B93CA800A7303F07AFD0DA80590BB
:1010700003F0DFFC049B059A069908980124079465
:101080001480518093800823D38040F20013138191
:1010900040F20023538103F089FA06990898109AC8
:1010A00003F04EFC06990898702203F0F9FB069AAB
:1010B0000898114603F06EFC089803F0DBF90799D5
:1010C000089803F0DAFE089803F038FD12B010BD5E
:1010D000110500000040014010B58EB06C4802F0D0
:1010E00045FF3E4802F042FF0920C0060190002162
:1010F0000491A022029202F067FA0198029B049ADE
:10110000022102F0E6FA0198029B0499032203925D
:1011100002F026FB3248069002F090FF07A80590E7
:1011200003F08CF8039B049A059906984CF200048E
:10113000089440F20414079440F2007409940C934C
:1011400040F200230A930D920B9202F0DBFF069807
:1011500002F044FF0EB010BD10B58EB04C4802F046
:1011600005FF1E4802F002FF0920C0060190002181
:101170000491A022029202F027FA0198029B049A9D
:10118000022102F0A6FA0198029B0499032203921D
:1011900002F0E6FAF348069002F050FF07A8059027
:1011A00003F04CF8039B049A059906984CF200044E
:1011B000089440F20414079440F6007409940C93C8
:1011C00040F200230A930D920B9202F09BFF0698C7
:1011D00002F004FF0EB010BD110500000C06000067
:1011E0000030014080B588B00790294802F0BEFE6B
:1011F000284802F0BBFE0920C0060290012103919D
:1012000040F20022009202F0DFF90298039940F2C6
:101210000042049202F0D8F9009B0298039A02213E
:10122000019102F056FA009B0298039A0021059161
:1012300002F096FA01990298039A049B02F049FA87
:101240000298039A049B059902F08AFA12480690C4
:1012500003F098FE0599069803F00FFF059906988C
:1012600003F0E7FE0599069803F0BFFE069807997C
:1012700003F030FE0698042103F0CCFE0698082106
:1012800003F0ECFE069803F0A7FE08B080BDC04650
:10129000110500000E0600000038014080B58CB03A
:1012A0000B900AA90020087009A9087008908C48C2
:1012B00007900B984078401E0690052800D905E15C
:1012C00006998A0001A080188746C04600F00AB837
:1012D00000F078B800F02CB800F0F7B800F08CB847
:1012E00000F0BFB80B98C068FFF73DF804900B986A
:1012F000C088FFF72DF80146049805917C49FEF758
:1013000056FF0599FEF7FAFEFFF734F80B99C880EF
:101310000B98C0880B99C968884204D9FFE70B99DC
:101320000020C880FFE70B98C08800F03FF9CEE0AE
:101330000B98C088FFF70CF803900B98C068FFF774
:1013400012F801460398FEF76FFF08900B98C068EB
:1013500040F2E831884203D8FFE762480790FFE790
:101360000B98C068FEF7FFFF0799FEF718FFFFF71D
:101370001AF80B99C8600B98C068312804D8FFE7A9
:101380000B995948C860FFE70B98C1685748B0FBF4
:10139000F1F00B9988800B98C068FEF7E4FF08997C
:1013A000FEF705FFFEF7E6FF0B99C8800B98C08893
:1013B00000F0FCF80B98C068401E00F0EDF800202B
:1013C000089084E00B98807858B9FFE70B990120CA
:1013D000029088707B4803F0BAFB029800F08CF80A
:1013E00009E00B9900208870764803F0A7FB0120E4
:1013F000FFF736FBFFE76AE00B988068C01E01909C
:10140000042823D801998A0001A080188746C04685
:1014100000F018B800F012B800F00CB800F006B8F0
:1014200000F000B80B990620886013E00B990520A6
:1014300088600FE00B99042088600BE00B99032073
:10144000886007E00B990320886003E00B99072070
:101450008860FFE70B9882680020032101F0C6FC3A
:1014600035E00B988068C01E0090042822D80099AF
:101470008A0001A08018874600F018B800F012B862
:1014800000F00CB800F006B800F000B80B99072087
:10149000886013E00B99072088600FE00B99062005
:1014A00088600BE00B990520886007E00B99042009
:1014B000886003E00B9907208860FFE70B9882683B
:1014C0000020032101F092FC01E000E0FFE70B990E
:1014D000002048700B9800F0D5FF0CB080BDC046CE
:1014E00000007A43000048421027000040420F00ED
:1014F0000AD7A33C7047000080B582B0014601A81E
:10150000017000780090012804D0FFE700980228BD
:1015100006D00BE0074844F2000102F0B5F806E0FF
:10152000044848F2000102F0AFF800E0FFE702B023
:1015300080BDC046000800487047000080B582B0FA
:1015400001A90870FFE71248022102F09BFD08B9CB
:10155000FFE7F8E701A801780D4802F049FD02B065
:1015600080BDC0460030014080B582B001A908802E
:10157000FFE70748022102F085FD08B9FFE7F8E719
:1015800001A80188024802F033FD02B080BDC046C8
:10159000003001407047000080B582B0019001A882
:1015A0000188084802F06FFF02B080BD80B582B0AC
:1015B000014601A8018002880248002103F0C0F919
:1015C00002B080BD004001407047000080B584B08B
:1015D00034490868012210430860FFE73148006879
:1015E0008007002801D4FFE7F8E7FFE72E490868E5
:1015F00080221043086000200390FFE703987F28B3
:1016000005D8FFE7FFE70398401C0390F6E726495B
:10161000086890221043086000200390FFE70398B9
:101620007F2805D8FFE7FFE70398401C0390F6E703
:10163000FFE71D490868032290430860194A1068B3
:101640001A4B184010600868194A10400860086872
:10165000184A10400860184908680F229043086033
:101660001649086840F20312904308600868012296
:1016700001921304984308600868D30798430860F0
:101680000F490868904308600E49002002900860E6
:1016900002F0B6FE01980299C00602F013FA04B0F7
:1016A00080BDC0460010024004100240FFFFF2FE61
:1016B0000C00FF08FFFFC2772C10024030100240E0
:1016C000341002400810024010B588B007AC0094F6
:1016D000208006A80290018005A80190028004A83D
:1016E000039003802A2001F0ADF90098008801F0F2
:1016F0005FF90198008801F05BF92B2001F0A2F955
:101700000298008801F054F90398008801F050F91C
:101710002C2001F097F908B010BDB0B590B01D466F
:101720000B46149C0FA908800EA803800DAB1A80ED
:101730000CAA15800BAD2C800AAD002400942C80DF
:1017400009940894079406940594049403940294CD
:1017500001941B880C881B1B079312880388D21ADC
:10176000069209880291008801900798012803DBFE
:10177000FFE7012004900DE0079818B9FFE700206B
:10178000049006E00020C043049007984042079070
:10179000FFE7FFE70698012803DBFFE7012003903E
:1017A0000DE0069818B9FFE70020039006E000203E
:1017B000C0430390069840420690FFE7FFE7079872
:1017C0000699884203DDFFE70798059002E0069836
:1017D0000590FFE70AA900200880FFE70AA8008813
:1017E0000599491C884232DAFFE702A8008801A95E
:1017F00009880BAA128800F02CF80799099840185C
:101800000990069908984018089009980599884207
:1018100009DDFFE705990998401A09900499029893
:1018200040180290FFE708980599884209DDFFE714
:1018300005990898401A089003990198401801905A
:10184000FFE7FFE70A98401C0AA90880C6E710B026
:10185000B0BD80B584B00B4603A9088002A8038000
:1018600001AB00931A800A88038810461946FFF7D7
:101870002BFF0098008801F09BF804B080BDB0B544
:1018800088B014460D4601460C9A07A8018006A9A7
:101890000D8005AD2C8004AC238003AB1A8002AB15
:1018A000009300221A8001AB1A8000880988059AEB
:1018B000521E049B5B1E92B29BB2FFF705FF00997C
:1018C00006980880FFE702A8008804A909888842D2
:1018D0001BDAFFE7079801A90880FFE701A8008845
:1018E00005A9098888420ADAFFE703A8008801F001
:1018F0005FF8FFE70198401C01A90880EEE7FFE7C9
:101900000298401C02A90880DDE708B0B0BD0000C5
:1019100080B584B00C4802F029FB97480290012161
:101920000022019240F2E013039301F0D2FE0199EC
:101930000298039B032201F013FF0298039901F020
:10194000ABFE04B080BDC0461205000080B596B065
:10195000FFF7DEFFFFF7C0FB8748029020210191CF
:1019600001F092FE6420039001F068FB0199029857
:1019700001F092FE039801F061FB029840F2001121
:1019800001F08AFE039801F059FB112001F03CF8A8
:10199000782001F053FBB12001F036F805201590B6
:1019A00001F01CF83C20049001F018F8049801F0B4
:1019B00015F8B22001F028F8159801F00FF80498F6
:1019C00001F00CF8049801F009F8B32001F01CF8BC
:1019D000159801F003F8049801F000F8049800F05D
:1019E000FDFF159800F0FAFF049800F0F7FF049847
:1019F00000F0F4FFB42001F007F803200A9000F093
:101A0000EDFFC020059000F0FFFF2820089000F0B7
:101A1000E5FF082000F0E2FF0420129000F0DEFF56
:101A2000C12000F0F1FF059800F0D8FFC22000F0BF
:101A3000EBFF0D200B9000F0D1FF0020109000F084
:101A4000CDFFC32000F0E0FF8D20069000F0C6FF20
:101A50002A20079000F0C2FFC42000F0D5FF0698AE
:101A600000F0BCFFEE2000F0B9FFC52000F0CCFF75
:101A70001A2000F0B3FF362000F0C6FF702000F0FF
:101A8000ADFFE02000F0C0FF129800F0A7FF222079
:101A900000F0A4FF072000F0A1FF0A2000F09EFF45
:101AA0002E20099000F09AFF302000F097FF2520AB
:101AB0000E9000F093FF079800F090FF089800F058
:101AC0008DFF26200C9000F089FF099800F086FF1A
:101AD0003A20149000F082FF109800F07FFF012060
:101AE000119000F07BFF0A9800F078FF132013900C
:101AF00000F074FFE12000F087FF129800F06EFF05
:101B0000162000F06BFF062000F068FF0B9800F035
:101B100065FF2D200F9000F061FF0C9800F05EFF34
:101B2000232000F05BFF27200D9000F057FF0D9859
:101B300000F054FF0E9800F051FF0F9800F04EFF98
:101B40003B2000F04BFF109800F048FF119800F088
:101B500045FF129800F042FF139800F03FFF1498E1
:101B600000F052FF159800F039FF292000F04CFFDB
:101B7000FFF7F2FA16B080BD00040048F0B597B048
:101B800014460D4606461E991D9A1C9816AF0197DD
:101B90003E8015AE0296358014AD03952C7013ACC3
:101BA000238012AB188011A80490027010AA117043
:101BB0000CAA002105911170169909AA11800078CC
:101BC00041080EA8069001700178C80807904907DF
:101BD000401C089009B907980890049B069A02993E
:101BE0000198039D089E1C7874430AAE3480149CAF
:101BF000203C2C700088098812788218521E1B78AD
:101C0000CB185B1E92B29BB2FFF75EFD05980BA945
:101C10000880FFE70BA800880AA90988884200DB32
:101C200098E011A800780C280CD1FFE714A80078E0
:101C30000C2141434A4840180BA90988405C0FA970
:101C4000087023E011A8007810280BD1FFE714A832
:101C500000780101414840180BA90988405C0FA990
:101C6000087012E011A8007818280CD1FFE714A81A
:101C7000007830214143384840180BA90988405C5E
:101C80000FA9087000E065E0FFE7FFE70DA900205D
:101C90000870FFE70DA80078072855DCFFE710A8BB
:101CA000007820BBFFE70FA800780DA90978C8408D
:101CB000C00728B1FFE713A8008800F079FE04E010
:101CC00012A8008800F074FEFFE70C98411C0CA8D5
:101CD000017000780EA90978B0FBF1F25143401A67
:101CE00020B9FFE70CA9002008702DE026E00FA81E
:101CF00000780DA90978C840C00748B1FFE716A8C9
:101D0000008815A9098813AA1288FFF7A2FDFFE72A
:101D10001698411C16A80180008809A90988401A54
:101D20000EA90978884208D1FFE7099816A908800A
:101D30001598401C15A9088006E0FFE7FFE70D98FD
:101D4000401C0DA90870A5E7FFE70B98401C0BA9E4
:101D500008805FE717B0F0BD32640008425E0008FB
:101D6000CE590008F0B58BB014460D4606461298C1
:101D70001199109A0AAF3E8009AE3580089407ACDD
:101D8000238006AB1A8005AA117004A90870FFE72A
:101D900008980078002854D0FFE705A800780C28A0
:101DA00013D1FFE70AA8008809A90988089A07AB98
:101DB0001B8806AC248805AD2D7804AE36780296D3
:101DC0000195009400F040F831E005A80078102853
:101DD00013D1FFE70AA8008809A90988089A07AB68
:101DE0001B8806AC248805AD2D7804AE36780296A3
:101DF0000195009400F01EF918E005A80078182855
:101E000013D1FFE70AA8008809A90988089A07AB37
:101E10001B8806AC248805AD2D7804AE3678029672
:101E20000195009400F0FCF9FFE7FFE7FFE7089851
:101E3000801C089005A801780A9840180AA9088013
:101E4000A6E70BB0F0BD0000F0B595B014460D4606
:101E500006461C991B9A1A9814AF3E8013AE358023
:101E6000129411AC238010AB18800FA802700EAA38
:101E700011700DAA0021009111700CAA11700BAA0B
:101E800011700AAA0192118009AA0292118008AA6F
:101E900003921180149907AA118001780491C8084F
:101EA00005904907401C069009B9059806900098CE
:101EB0000199029B039C049A069D6A4322800D228D
:101EC0001A800880FFE70AA8008809A909888842C3
:101ED00000DBAAE00AA800881A2141435448405C6C
:101EE00012990978884200D099E00AA800881A213E
:101EF00041434F484018407812994978884200D0B1
:101F00008DE014A8008813A909880FAA1378C218B5
:101F1000521ECB185B1E92B29BB2FFF7D5FB0DA9E8
:101F200000200870FFE70DA8007808A909888842FA
:101F300074DAFFE70CA900200870FFE70CA800780E
:101F4000072865DCFFE70EA8007860BBFFE70AA85A
:101F500000881A214143364840180DA909784018D5
:101F600080780CA90978C840C00728B1FFE711A8FC
:101F7000008800F01DFD04E010A8008800F018FDA6
:101F8000FFE70B98411C0BA8017000780FA9097896
:101F9000B0FBF1F25143401A20B9FFE70BA9002032
:101FA000087035E02EE00AA800881A214143204835
:101FB00040180DA90978401880780CA90978C84004
:101FC000C00748B1FFE714A8008813A9098811AA1F
:101FD0001288FFF73EFCFFE71498411C14A801800B
:101FE000008807A90988401A0FA90978884208D1F2
:101FF000FFE7079814A908801398401C13A90880CC
:1020000006E0FFE7FFE70C98401C0CA9087095E775
:10201000FFE70D98401C0DA9087084E7FFE7FFE774
:102020000A98401C0AA908804DE715B0F0BDC046CB
:1020300086C60008F0B595B014460D4606461C99B4
:102040001B9A1A9814AF3E8013AE3580129411ACCF
:10205000238010AB18800FA802700EAA11700DAA71
:102060000021009111700CAA11700BAA11700AAA1C
:102070000192118009AA0292118008AA039211808C
:10208000149907AA118001780491C808059049079E
:10209000401C069009B90598069000980199029B8A
:1020A000039C049A069D6A43228009221A800880B4
:1020B000FFE70AA8008809A90988884200DBAAE08E
:1020C0000AA80088222141435448405C12990978AB
:1020D000884200D099E00AA80088222141434F4855
:1020E0004018407812994978884200D08DE014A8B1
:1020F000008813A909880FAA1378C218521ECB189A
:102100005B1E92B29BB2FFF7DFFA0DA900200870A8
:10211000FFE70DA8007808A90988884274DAFFE76C
:102120000CA900200870FFE70CA80078072865DCE0
:10213000FFE70EA8007860BBFFE70AA8008822210D
:102140004143364840180DA90978401880780CA9F9
:102150000978C840C00728B1FFE711A8008800F03F
:1021600027FC04E010A8008800F022FCFFE70B9891
:10217000411C0BA8017000780FA90978B0FBF1F29F
:102180005143401A20B9FFE70BA90020087035E041
:102190002EE00AA8008822214143204840180DA9BA
:1021A0000978401880780CA90978C840C00748B160
:1021B000FFE714A8008813A9098811AA1288FFF75D
:1021C00048FBFFE71498411C14A80180008807A968
:1021D0000988401A0FA90978884208D1FFE70798B3
:1021E00014A908801398401C13A9088006E0FFE793
:1021F000FFE70C98401C0CA9087095E7FFE70D98C5
:10220000401C0DA9087084E7FFE7FFE70A98401C0F
:102210000AA908804DE715B0F0BDC046D8C7000830
:10222000F0B595B014460D4606461C991B9A1A98AF
:1022300014AF3E8013AE3580129411AC238010ABE6
:1022400018800FA802700EAA11700DAA002100912B
:1022500011700CAA11700BAA11700AAA01921180B8
:1022600009AA0292118008AA03921180149907AA60
:10227000118001780491C80805904907401C069018
:1022800009B90598069000980199029B039C049A4D
:10229000069D6A43228005221A800880FFE70AA86B
:1022A000008809A90988884200DBAAE00AA80088FA
:1022B0004A2141435448405C12990978884200D031
:1022C00099E00AA800884A2141434F4840184078C5
:1022D00012994978884200D08DE014A8008813A98B
:1022E00009880FAA1378C218521ECB185B1E92B22F
:1022F0009BB2FFF7E9F90DA900200870FFE70DA8D0
:10230000007808A90988884274DAFFE70CA9002040
:102310000870FFE70CA80078072865DCFFE70EA827
:10232000007860BBFFE70AA800884A21414336488D
:1023300040180DA90978401880780CA90978C84080
:10234000C00728B1FFE711A8008800F031FB04E0C6
:1023500010A8008800F02CFBFFE70B98411C0BA88D
:10236000017000780FA90978B0FBF1F25143401ACF
:1023700020B9FFE70BA90020087035E02EE00AA87D
:1023800000884A214143204840180DA90978401887
:1023900080780CA90978C840C00748B1FFE714A8A5
:1023A000008813A9098811AA1288FFF752FAFFE7DB
:1023B0001498411C14A80180008807A90988401AB4
:1023C0000FA90978884208D1FFE7079814A9088067
:1023D0001398401C13A9088006E0FFE7FFE70C985C
:1023E000401C0CA9087095E7FFE70D98401C0DA94B
:1023F000087084E7FFE7FFE70A98401C0AA90880F5
:102400004DE715B0F0BDC0460AC90008F0B58DB063
:1024100014460D46064614981399129A0CAF3E8046
:102420000BAE35800A9409AC238008AB1A8007AA4A
:10243000117006A90870FFE70A98007800B3FFE75B
:102440000CA8059000880BA909880A9A127809AB94
:102450001B8808AC248807AD04952D7806AE367825
:10246000029601950094FFF789FB0498059900787E
:1024700042080C98801808800A98401C0A90DBE7F4
:102480000DB0F0BD80B59AB0199000201090189052
:10249000179016901590149013901290119019980F
:1024A0004069FDF794FF02460B46834911A80F903F
:1024B00002F0F8FD0F9A10980290102001904FF64C
:1024C00000000090052070217C4BFFF79FFF1098C3
:1024D00018901790169015901490139012901190D8
:1024E000199800697649FDF7EBFE30BBFFE71998B4
:1024F00000697349FDF798FEFDF769FF02460B4638
:10250000714911A80D9002F0CDFD0D9A00200E909A
:102510000290102001904FF60000009037207021AB
:10252000664BFFF773FF0E98189017901690159052
:10253000149013901290119022E019980069FDF701
:1025400046FF02460B465F4911A80B9002F0AAFD18
:102550000B9A00200C900290102001904FF6000082
:10256000009037207021554BFFF750FF0C981890C2
:102570001790169015901490139012901190FFE7F9
:102580001998807801280ED1FFE7002002901020D2
:10259000019040F2E07000904D4A6E202421FA4BE9
:1025A000FFF734FF0DE000200290102001904FF65D
:1025B00000000090454A6E202421F34BFFF726FFD0
:1025C000FFE71998808840F2E831884223DBFFE773
:1025D0001998808840F2E831B0FBF1F23E4911A829
:1025E000099002F05FFD099A00200A9002901020E5
:1025F00001904FF6000000906E204821E24BFFF75B
:1026000005FF0A9818901790169015901490139043
:10261000129011901EE0199882882E4911A80790F7
:1026200002F040FD079A00200890029010200190CF
:102630004FF6000000906E204821D34BFFF7E6FED6
:102640000898189017901690159014901390129067
:102650001190FFE71998C088FDF77AFE0490199849
:10266000C068FDF780FE01460498FDF7DDFD1B49BB
:10267000FDF79DFDFDF7ABFE02460B46184911A87C
:10268000059002F00FFD059A0020069002901020A0
:1026900001904FF6000000906E206A21BA4BFFF7C0
:1026A000B5FE0698189017901690159014901390F8
:1026B000129011901AB080BD28C60008FFFF0000DC
:1026C00000007A4430C6000840C600081BC6000857
:1026D0000BC6000849C6000839C600080000C842F9
:1026E00012C6000870B5A0B01FA81490002515955B
:1026F00005801EA805801D951C951B951A9519959A
:102700001895179516950295102401949E481290DD
:1027100000909E4A0A204FF600030E932946FFF7C9
:1027200021FB9B4916A80F9002F0BCFC0F9A129B4C
:102730000E980295019400906E2010902946FFF7A4
:1027400065FE109812991D951C951B951A95199563
:1027500018951795169502950C22119201920091E9
:102760008C4A14212B46FFF7FDFA1098119A129902
:10277000029501920091884A38212B46FFF7F2FA20
:102780000F9886490D9102F08DFC0E990F9A129BBD
:1027900010980295019400914821FFF737FE0F9899
:1027A0001D951C951B951A951995189517951695B5
:1027B0007B4902F077FC0F9A119B129910980295B1
:1027C000019300915C210C912B46FFF71FFE0C99A1
:1027D000119A12981D951C951B951A951995189587
:1027E000179516950295019200906E4A73202B461C
:1027F000FFF7B8FA0D990F9802F054FC0E990F9A52
:10280000129B10980295019400916A21FFF7FEFD3A
:1028100011991298159B1D931C931B931A9319934E
:102820001893179316930293019100905E4A052026
:1028300060211391FFF796FA119A12981399159B3C
:10284000029301920090594A3720FFF78BFA1499AE
:1028500015980880FFE71FA8008880280CDCFFE798
:102860001FA801886A200022FEF7F3FFFFE71F98E8
:10287000801C1FA90880EEE71FA900200880FFE741
:102880001FA80088692820DCFFE71FA800886328AC
:1028900007DCFFE71FA800885A210022FEF7D9FFB6
:1028A000FFE71FA80A900088132100220B92FEF771
:1028B000D0FF0A980B9A00885E21FEF7CAFFFFE757
:1028C0001F98401C1FA90880DAE71FA91420088060
:1028D000FFE71FA800885A280CDCFFE71FA8018823
:1028E00000221046FEF7B5FFFFE71F98401C1FA906
:1028F0000880EEE71FA900200880FFE71FA80088D6
:1029000009281BDCFFE71F990A2007904843801C19
:1029100080B25B21089100220992FEF79AFF079886
:102920000899099A1F9B5843C01C80B2FEF791FF7B
:10293000FFE71F98401C1FA90880DFE71FA90020A0
:102940000880FFE71FA8008809281BDCFFE71F9904
:102950000A2004904843801C80B25C21059100222B
:102960000692FEF776FF04980599069A1F9B584336
:10297000C01C80B2FEF76DFFFFE71F98401C1FA927
:102980000880DFE720B070BDFFFF00007BC60008B5
:1029900022C6000850C6000872C6000804C6000817
:1029A00002C6000862C6000859C6000869C60008C9
:1029B00080B584B003A9009108803148019080213E
:1029C000029100F061FE00980088FEF7CDFD0198AD
:1029D000029900F061FE04B080BDC04680B584B0AD
:1029E00003A900910870264801908021029100F00F
:1029F0004BFE00980078FEF7A1FD0198029900F0C7
:102A00004BFE04B080BDC04680B586B005A90191DB
:102A100008701B4803904021029100F035FE039896
:102A20008021049100F030FE01980078FEF786FDC9
:102A30000299039800F030FE0398049900F02CFEF0
:102A400006B080BD80B586B005A9019108800C480C
:102A500003904021029100F017FE03988021049119
:102A600000F012FE01980088FEF77EFD029903989F
:102A700000F012FE0398049900F00EFE06B080BD2F
:102A80000004004880B53148022102F0D9F901283C
:102A90005AD1FFE72E48008850B9FFE72B480021A4
:102AA00001F0FAFC2C49088029490120088046E001
:102AB00027480088012841D1FFE72448002101F080
:102AC000EBFC01462348018000882349098888429D
:102AD00008DDFFE71F4800881F490988401A204980
:102AE000086009E01C4801881A480088401A1B4900
:102AF00040181B490860FFE719480068FDF733FCE0
:102B000001461848FDF790FB014617480160006830
:102B10001649FDF7D5FB28B9FFE7134800681449AB
:102B20000861FFE70C49002008800D4908600E4944
:102B300008600849088006490880FFE7FFE7034866
:102B4000022102F074F9FFE780BDC0460004004096
:102B5000620200204207002040070020FFFF000023
:102B6000640200200050C347700200200000C842E9
:102B70007802002081B0014668460170002140566D
:102B800000280DD4FFE70021684641561F200A4661
:102B900002400120904049098900024A8850FFE71D
:102BA00001B0704700E100E070B582B0024601A8B4
:102BB0000270009100214056002816D4FFE700243F
:102BC00001A908570322D3431840174A80580957D0
:102BD0008C07E50EFF24AC40A043009CA401E4B2A6
:102BE000AC402043194088501AE001A908780F240E
:102BF000204008380322D34318400A4A8058002551
:102C000049578D07EE0EFF25B540A843009DAD0145
:102C1000EDB2B54028432140083919408850FFE7FC
:102C200002B070BD1CED00E000E400E0D54908688A
:102C3000082210430860FFE7D24800680007002818
:102C400001D5FFE7F8E7CF49086804221043086080
:102C5000FFE7CC4800684007002801D5FFE7F8E708
:102C60007047C04683B0024602A802700191007806
:102C70000090012804D0FFE7009802280FD01DE043
:102C8000AC490A680F20000582430A60019A1205C8
:102C90000D4BD21802400868104308600FE0094944
:102CA0000A680320000582430A60019A1205064B58
:102CB000D218024008681043086000E0FFE703B044
:102CC0007047C046382401400000F0FF81B00090FA
:102CD000009838B1FFE7D849086840F60002104371
:102CE000086006E0D449086840F600029043086096
:102CF000FFE701B07047C046CF49086840F20012B4
:102D0000104308607047C046CB480068C00730B920
:102D1000FFE7C9490868012210430860FFE77047D0
:102D200082B001AA1070684601700078D0B1FFE748
:102D300001A80078C00738B1FFE7BF490868012241
:102D4000120510430860FFE701A8007880070028FB
:102D500007D5FFE7B849086848F200021043086049
:102D6000FFE719E001A80078C00738B1FFE7B249D2
:102D700008680122120590430860FFE701A8007867
:102D80008007002807D5FFE7AB49086848F2000232
:102D900090430860FFE7FFE702B0704783B0024648
:102DA00002A80270019100780090012804D0FFE78A
:102DB000009802280BD015E09F49086807225204AA
:102DC00090430860019A0868104308600BE09A4934
:102DD000086847F2000290430860019A08681043AF
:102DE000086000E0FFE703B07047C04610B585B04B
:102DF000034604A8037003AB1970029200780528FB
:102E000018D8FFE74D490868019004AB1C780520ED
:102E1000024662431F249440019AA243019203AAEE
:102E200012781B7858438240019810430190019812
:102E3000086040E004A800780B281AD8FFE73E4954
:102E40000868019004AB1C780520024662431E3AD4
:102E50001F249440019AA243019203AA12781B787E
:102E600058431E3882400198104301900198086031
:102E700020E004A800780F281AD8FFE72D49086839
:102E8000019004AB1C780520024662433C3A1F24A3
:102E90009440019AA243019203AA12781B785843E6
:102EA0003C3882400198104301900198086000E08E
:102EB000FFE7FFE7FFE703A80078092817D8FFE737
:102EC00020490868009003AB1C7803200246624347
:102ED00007249440009AA2430092029A1B78584318
:102EE0008240009810430090009808601FE003A8FB
:102EF0000078122819D8FFE711490868009003AB41
:102F00001C780320024662431E3A07249440009A2C
:102F1000A2430092029A1B7858431E3882400098C0
:102F2000104300900098086000E0FFE7FFE705B05D
:102F300010BDC0462C2401403024014034240140FF
:102F40000C2401401024014081B001466846017004
:102F50000078C00738B1FFE73749086801229205B9
:102F600010430860FFE7684600788007002807D50F
:102F7000FFE7314908680122520510430860FFE766
:102F800001B070470824014082B00190684601708A
:102F9000007830B3FFE701A84078C00738B1FFE7F9
:102FA0002449086840F2001210430860FFE701A8B6
:102FB00040784007002807D5FFE71E49086840F21F
:102FC000004210430860FFE701A80078800700284E
:102FD00006D5FFE718490868022210430860FFE79A
:102FE00025E001A84078C00738B1FFE7114908681B
:102FF00040F2001290430860FFE701A840784007C4
:10300000002807D5FFE70B49086840F200429043CB
:103010000860FFE701A800788007002806D5FFE7D1
:1030200005490868022290430860FFE7FFE702B005
:103030007047C046042401400824014080B584B094
:1030400003900398FDF78FF918490968FDF7AFF869
:10305000FDF7A9F9164908601649002008601649CD
:1030600001200860FFE7144800680290FFE7002095
:1030700002A90978C907019041B1FFE702A8807849
:1030800001210840414248410190FFE70198C007F3
:103090000028E8D1FFE7084908680122904308604A
:1030A00004490020086004B080BDC04668020020CA
:1030B00014E000E018E000E010E000E081B001461C
:1030C00068460170007814214143AD4A88580123B5
:1030D0009843885001B0704781B00146684601703E
:1030E000007814214143A64A885801231843885088
:1030F00001B0704781B00146684601700078142124
:1031000041439F4A885820231843885001B0704794
:10311000B0B581B0014668460170017814221346AB
:103120004B43974C19590125A9431951017813466E
:103130004B4300211951047813466343994C1951AC
:103140000478134663434B4C195103785A434A4B56
:10315000D150007880000F228240584908681043FF
:10316000086001B0B0BDC046B0B584B0024603A847
:103170000090027002910078FFF7A0FF009B029878
:1031800000681C7814210A4662433A4C1051029898
:1031900080681C780A466243374C10510298008AB6
:1031A0001C780A4662437F4C10511A7808465043F7
:1031B000734A80580190019843F60074A04301902F
:1031C00002984468C5682C43406904430198204331
:1031D000019001981B78594388500298007E01287D
:1031E0000AD1FFE703A8007814214143644A8858B4
:1031F00040231843885009E003A800781421414374
:103200005F4A8858402398438850FFE70298407EE1
:1032100001280AD1FFE703A8007814214143584A46
:10322000885880231843885009E003A800781421A7
:103230004143534A8858802398438850FFE70298B7
:10324000807E50B9FFE703A80078142141434C4A1F
:10325000885810239843885009E003A80078142167
:103260004143474A8858102318438850FFE704B069
:10327000B0BDC046100002401400024082B00246B9
:1032800001A802700091009B0078142141433C4A40
:1032900088581843885002B07047C04682B0024632
:1032A00001A802700091009A0078800082400349D2
:1032B00008681043086002B07047C046040002402E
:1032C00086B004AA10700391002002900190039828
:1032D0000090022808D0FFE70098042816D0FFE7E6
:1032E0000098082824D035E024480168039A04A8EF
:1032F00003789B009A4011400191017814204843C3
:103300001F49405802210840029024E01B480168F0
:10331000039A04A803789B009A4011400191017818
:10332000142048431649405804210840029012E0F6
:1033300012480168039A04A803789B009A40114040
:1033400001910178142048430D4940580821084054
:10335000029000E0FFE7019838B1FFE7029820B142
:10336000FFE705A90120087003E005A90020087007
:10337000FFE705A8007806B07047C046000002408D
:103380000800024083B000910246009802A90A702A
:10339000019001A800880A7814215143014A8850FD
:1033A00003B070470C00024010B588B007AA107037
:1033B00006A8018005AA0021118004AA118003AA91
:1033C0001180405E312806DCFFE7002106A8405E40
:1033D000002804D5FFE706A932200880FFE707A8E8
:1033E00000780699401A04A908802C48007880B11A
:1033F000FFE704A80188002002902A4AFEF729FA74
:103400000298274908800499274A118023490870A7
:1034100042E023480088411C05A8018000886328F9
:103420002BDCFFE71E4800881F49098805AA12887F
:1034300004AB1B884FF600040094FEF76EF903A955
:1034400014200880FFE703A8008859280EDCFFE756
:103450000598401C03A9098880B2124AFEF7F9F9C1
:10346000FFE70398401C03A90880ECE705980C4986
:10347000088004980C4908800DE004A80188002009
:103480000190084AFEF7E5F901980549088004987B
:1034900005490880FFE7FFE708B010BD04000020E1
:1034A00074020020FFFF00007602002085B0049027
:1034B00003A8017002A90A70049B304A116899435D
:1034C0001160049B2E4A116899431160049B2D4A98
:1034D000116899431160049B2B4A1168994311604C
:1034E0000078019020B1FFE70198012806D00BE099
:1034F000049A224908681043086006E0049A2049AB
:1035000008681043086000E0FFE702A80078009018
:1035100003282FD800998A0001A080188746C0464A
:1035200000F006B800F00FB800F018B800F021B8AD
:10353000049A1449086810430860049A12490868FC
:103540009043086017E0049A0E49086890430860A9
:10355000049A0D490868104308600CE0049A094970
:10356000086810430860049A074908681043086017
:1035700001E0FFE7FFE705B07047C04600040140E7
:1035800004040140080401400C04014081B0009093
:1035900000980C49086001B07047C04682B00090A6
:1035A000084800680099084204D0FFE701A90120FB
:1035B000087003E001A900200870FFE701A8007867
:1035C00002B070471404014086B005900491039244
:1035D0000598006A01900598406A009002A90020B1
:1035E0000880FFE702A8008807281DD8FFE702A887
:1035F00001880398C840C00780B1FFE702A801888E
:1036000089000F228A400199914301910499008811
:1036100080008140019808430190FFE7FFE702988E
:10362000401C02A90880DDE702A908200880FFE706
:1036300002A800880F281FD8FFE702A80188039876
:10364000C840C00790B1FFE702A80188890020396F
:103650000F228A40009991430091049900888000CC
:1036600020388140009808430090FFE7FFE7029868
:10367000401C02A90880DBE70198059908620098C0
:103680000599486206B0704782B001900091009899
:103690000199886202B0704782B001900091009851
:1036A0000199886102B0704783B001900091019840
:1036B00000690099084204D0FFE702A901200870C0
:1036C00003E002A900200870FFE702A8007803B019
:1036D000704787B00690059104920393069800689E
:1036E00001900698C068009002A900200880FFE7BA
:1036F00002A800880F282BD8FFE702A801880398AA
:10370000C840C007F0B1FFE702A8018849000322C2
:1037100013468B40019999430191059B018849000B
:103720008B40019919430191018849008A40009911
:10373000914300910499008840008140009808431B
:103740000090FFE7FFE70298401C02A90880CFE73E
:1037500001980699086000980699C86007B07047FC
:1037600010B586B0059004A801700392029300780A
:10377000012806D1FFE7029A05994868104348607E
:1037800005E0029A0599486890434860FFE705986C
:103790008068009001A900200880FFE701A8008848
:1037A0000F281DD8FFE701A801880298C840C0076C
:1037B00080B1FFE701A80188490003228A400099EF
:1037C000914300910399008840008140009808438C
:1037D0000090FFE7FFE70198401C01A90880DDE7A2
:1037E00000980599886006B010BD000010B58EB035
:1037F000002004900D900CA908800B900A907F2166
:10380000C90509910890079006A908809A48059073
:10381000FDF7DAFB00F00EFEFDF7A4FBFEF796F8CD
:10382000FDF732FA049995480090A02280230846BB
:10383000FEF725F8E1204002FDF7D4FCFDF7DCF8A7
:10384000FDF770FA0599C868401EC988FDF7D8FBD6
:10385000FDF7B2FAFDF734FBFDF7D4FAFEF742FFAD
:10386000FFE785480390FDF719FD039800780128CC
:1038700000D0FDE080490020087048610CA9088054
:10388000FFE70CA8008840F22B11884243DCFFE7D9
:103890000CA802900088FDF7D3F9FCF759FD7C498C
:1038A000FCF785FC8B21C905FCF7BEFC0790079946
:1038B0000846FCF723FC01467648FCF770FC029AA8
:1038C000034614886C4801461831A4000B51406926
:1038D000128892008958FCF701FD40B9FFE70CA857
:1038E000008880006449081880694861FFE76248E1
:1038F0004069FCF76CFD624A624BFCF713FD20B98E
:10390000FFE75D4900200861FFE7FFE70C98401CD6
:103910000CA90880B5E70020019040F22C11FFF7B8
:1039200031FD0198FFF7D8FB01980CA90880FFE74B
:103930000CA80088C7282DDCFFE70CA800888100B0
:103940004D48401880690999FCF7C8FCE0B9FFE7C9
:10395000FFE70CA80088C72815DCFFE70CA8008843
:1039600081004548401880690999FCF79BFC20B903
:10397000FFE70C9806A9088005E0FFE70C98401CBB
:103980000CA90880E5E705E0FFE70C98401C0CA9AE
:103990000880CDE738484069FCF719FD384A394BB3
:1039A000FCF7AAFC68B9FFE73348406901218907A1
:1039B000FCF73AFC0B900B993348FCF735FC089068
:1039C000FFE706980CA90880FFE70CA8008806A965
:1039D0000988643188424ADAFFE72748407804289A
:1039E00013D1FFE7244900204870FFE722484078C0
:1039F000042804D1FFE720490020487004E0FFE7D5
:103A000001200028F2D1FFE7FFE70CA80088810021
:103A10001948401880690A900A980B99FCF750FCE5
:103A200060B9FFE70A990B98FCF7B9FB0899FCF716
:103A3000BEFB1649FCF762FB0A900BE00B980A9953
:103A4000FCF7ADFB0899FCF7B2FB1049FCF756FBFD
:103A50000A90FFE70A98FCF78DFC01465020FFF71B
:103A6000A3FCFFE70C98401C0CA90880ADE7FFE71A
:103A70000148FEF707FDF4E678020020FFFF000092
:103A8000333333333333D33F000034410000F0414C
:103A9000333353400000A04080B584B00A4601464D
:103AA00003A80190017002A90A70002200928056BA
:103AB0000978FFF779F8009901984056FFF75AF80E
:103AC00004B080BD82B00190009101980099044A31
:103AD0001140084303490860BFF34F8F02B070479D
:103AE00080FFFF1F08ED00E082B0014601A80170D1
:103AF0005D4A11684CF20003994311605B4A1168FA
:103B00005B4B1940116000780090092800D9A7E0AC
:103B100000998A0001A080188746C04600F012B8BC
:103B200000F01CB800F026B800F02EB800F03BB84A
:103B300000F046B800F056B800F061B800F071B877
:103B400000F07CB8494908680122120490430860DB
:103B5000086840F200129043086082E04349086818
:103B60000122120410430860086840F200129043DA
:103B7000086076E0F64908680860F949086840F28C
:103B80000012104308606CE0F14908680860F449CD
:103B900008680122D20710430860086840F200124A
:103BA000104308605DE0EA49086844F200021043EF
:103BB0000860EB49086840F200121043086050E0CA
:103BC000E349086844F2000210430860E4490868C9
:103BD0000122D20710430860086840F20012104327
:103BE00008603EE0DA49086848F2000210430860C5
:103BF000DB49086840F200121043086031E0D44904
:103C0000086848F2000210430860D549086801229C
:103C1000D20710430860086840F2001210430860A1
:103C20001FE0CB4908684CF2000210430860CC4901
:103C3000086840F200121043086012E0C4490868A6
:103C40004CF2000210430860C54908680122D207FF
:103C500010430860086840F200121043086000E05A
:103C6000FFE702B07047C046041002403010024027
:103C7000FFFEFE7F9DB01CA90870002002901B90E3
:103C80001A90199018901790169015901490139000
:103C90001290119010900F900E900D900C90AA49D8
:103CA0000B91AA490A9109900890079106900591F5
:103CB0000490A74800680C21084080081B901B98BE
:103CC000039040B1FFE70398012807D0FFE703986E
:103CD000022806D044E0A148179044E09F4817907E
:103CE00041E09B4801680F2292041140890C119118
:103CF00000680121C9060840C00E109010980128E4
:103D000004D1FFE71198113011900BE011980F28A2
:103D100003D1FFE71020119003E01198801C11904F
:103D2000FFE7FFE78A480068012109040840000C0A
:103D30000F900F9870B1FFE7874800680F21084087
:103D4000401C0E900E998548B0FBF1F11198484344
:103D5000179004E011997F4848431790FFE702E06D
:103D60007E481790FFE77A480168C9B209090D91AA
:103D70000D9A08A9895C0C9117990C9AD14016915B
:103D8000016840F200721140090A0D910D9A06A9CE
:103D9000895C0C9116990C9AD1401591006843F6F4
:103DA00000010840C00A0D900D9904A8405C0C90D9
:103DB00016980C99C84014901CA80078019005280A
:103DC00000D9BCE001998A0001A080188746C0464E
:103DD00000F00AB800F00BB800F00CB800F00DB815
:103DE00000F00EB800F07DB817981890A8E016986B
:103DF0001890A5E015981890A2E0149818909FE0EC
:103E00005748006840F20011084088420FD0FFE791
:103E100053480068012109040840884203D0FFE7A5
:103E20005148139002E04F481390FFE756E048488E
:103E3000006880B2800B1A9049480068C00F199042
:103E40001A980090032847D800998A0001A080188A
:103E50008746C04600F006B800F012B800F01EB861
:103E600000F02CB8199820B9FFE714984008139077
:103E700005E016980321B0FBF1F01390FFE72CE06A
:103E8000199820B9FFE714988008139005E0169858
:103E90000521B0FBF1F01390FFE71EE0199830B94F
:103EA000FFE714980621B0FBF1F0139005E0169897
:103EB0000721B0FBF1F01390FFE70EE0199820B94D
:103EC000FFE71498C008139005E016980921B0FB8D
:103ED000F1F01390FFE700E0FFE7FFE71398189079
:103EE0002EE01F480068800718B9FFE71498129069
:103EF00022E01B48006803210840012803D1FFE7A6
:103F00001798129017E0164800680321084002280D
:103F100004D1FFE748F2000012900BE0104800685F
:103F200003210840032803D1FFE70C48129000E06A
:103F3000FFE7FFE7FFE7FFE71298189000E0FFE7D1
:103F400018981DB07047C04606070809010203040F
:103F50000410024000093D002C10024000127A00BB
:103F600030100240003FAB01809FD50081B0014678
:103F70006846018000881F220146114001238B40C2
:103F80008109154A88581843885001B07047C046C7
:103F900081B001466846018000881F220146114019
:103FA00001238B4081090C4A88589843885001B0FE
:103FB0007047C04681B001466846018000881F22D4
:103FC0000146114001238B408109034A8858184358
:103FD000885001B07047C0460010024081B0009088
:103FE0000099086840221043086001B07047000043
:103FF00084B0039002A8018003988F49884205D1BC
:10400000FFE702A800880399C86015E0039840689C
:1040100041F2000108400090009838B1FFE7039892
:104020000C30019002980199087004E002A8008801
:104030000399C860FFE7FFE704B0704780B584B01C
:104040000390039802902E4988420ED0FFE7029811
:104050007949884211D1FFE740F20C300190FFF717
:10406000A9FF0198FFF794FF08E005480090FFF7CB
:10407000A1FF0098FFF78CFF00E0FFE704B080BDD0
:104080000E04000083B001900091019880680099AF
:10409000084204D0FFE702A9012008702BE0019834
:1040A0001749884223D1FFE7009870B9FFE70198CC
:1040B0008068C004800F20B1FFE702A900200870CB
:1040C00019E002A90120087015E0009870B9FFE717
:1040D000019880684005800F20B1FFE702A9002009
:1040E000087008E002A90120087004E0FFE702A9B7
:1040F00000200870FFE702A8007803B07047C046B0
:104100000038004086B00490039100200290019096
:104110000090049800680290029843F24001084021
:104120000290049800680190019843F6400108400D
:10413000019004984068009000983E490840009023
:1041400004983D4988423DD1FFE7039801680298F1
:10415000084302900398416802980843029003982C
:10416000C1680298084302900398016902980843C5
:10417000029003984169029808430290039881696C
:104180000298084302900398806840F200718842C8
:104190000BD0FFE70398806840F60071884204D096
:1041A000FFE705A90020087040E00398816840F609
:1041B00000000140029808430290FFE7029804992A
:1041C000086029E00398016801980843019003986A
:1041D00041680198084301900398C1680198084319
:1041E000019003980169019808430190039841697F
:1041F0000198084301900398816901980843019050
:104200000198049908600398816800980843009019
:10421000009804994860FFE70499C86940F60002D5
:104220009043C86105A901200870FFE705A8007840
:1042300006B07047FFF000000030014081B00090F0
:1042400000990020086000994860009A40F20071CF
:1042500091600099C86000990861009948610099CF
:10426000886101B07047000085B00A4604A9087053
:1042700003A8027002789207130F0F229A40D243CC
:104280000292097802789207120F9140019100780A
:1042900080080090032835D800998A0001A0801872
:1042A0008746C04600F006B800F00EB800F016B819
:1042B00000F01EB8029A1849086810400860019A78
:1042C0000868104308601EE0029A1249086810400E
:1042D0000860019A08681043086014E0029A0C49CB
:1042E000086810400860019A0868104308600AE0F6
:1042F000029A0649086810400860019A086810434D
:10430000086000E0FFE705B07047C04614000140B8
:10431000100001400C0001400800014084B0002062
:10432000039002903149086801221204104308608A
:10433000FFE70398401C03902C48006801214904C2
:1043400008400290FFE702990020019039B9FFE789
:1043500003982749401A411E88410190FFE70198C0
:10436000C0070028E5D1FFE7204800688003002847
:1043700002D4FFE7FFE7FEE71E4908680222104368
:104380000522904308601C4900910868086008688D
:104390000860086808600868184A104008600868E3
:1043A0001D221204104308601049086801221206F9
:1043B00010430860FFE70D4800688001002801D421
:1043C000FFE7F8E70C490868032290430860086893
:1043D000022210430860FFE7074800680C210840EC
:1043E000082801D0FFE7F7E704B07047001002404B
:1043F000FFFF00000020024004100240FFFFC277D0
:1044000080B5FFF78BFF80BD81B000900098042835
:1044100006D1FFE70649086804221043086005E05A
:1044200003490868042290430860FFE701B0704721
:1044300010E000E080B50420C043FFF7E5FF084826
:104440000068FBF790FF0749FBF7EEFE01460648C0
:10445000016000680549FBF7AAFE0549086080BDB8
:10446000000000200024F44A6C02002000007A447E
:104470006802002081B000900099086880221043F3
:10448000086001B0704782B00190684601800088E2
:104490000199C86202B0704784B0039002A80180FD
:1044A000002101910088009003281DD800998A00FE
:1044B00001A080188746C04600F006B800F008B892
:1044C00000F00AB800F00CB80398406B01900CE0C3
:1044D0000398806B019008E00398C06B019004E0A2
:1044E0000398006C019000E0FFE7019804B070476A
:1044F00084B0039002A8018001A90A80008800907E
:10450000032841D800998A0001A080188746C04638
:1045100000F006B800F010B800F01CB800F026B8A3
:10452000039988690C229043886101A80288039945
:1045300088691043886128E00399886940F6004241
:104540009043886101A8008802020399886910439A
:1045500088611AE00399C8690C229043C86101A8D8
:1045600002880399C8691043C8610EE00399C869BD
:1045700040F600429043C86101A8008802020399F6
:10458000C8691043C86100E0FFE704B0704781B01C
:104590000090009900200880009A01215180009924
:1045A00088800099C88001B07047000084B00390F3
:1045B00002A80180019200880090032800D964E1DC
:1045C00000998A0001A080188746C04600F006B80E
:1045D00000F063B800F0CBB800F023B90399086A83
:1045E00001229043086203998869032290438861FD
:1045F000019802880399086A104308620399086ABF
:10460000022290430862019882880399086A104345
:10461000086203989E4988420FD0FFE703989D499E
:1046200088420AD0FFE703989B49884205D0FFE7FC
:1046300003989A4988422FD1FFE70399086A042218
:1046400090430862019842880399086A10430862FF
:104650000399086A0822904308620198C288039966
:10466000086A104308620399486840F200129043B8
:10467000486001980289039948681043486003998B
:10468000486840F2002290434860019842890399AB
:10469000486810434860FFE7F8E00399086A102271
:1046A000904308620399886940F200329043886120
:1046B0000198008802010399086A1043086203996F
:1046C000086A2022904308620198808802010399B9
:1046D000086A1043086203986D49884233D1FFE7A6
:1046E0000399086A402290430862019840880201B9
:1046F0000399086A104308620399086A802290436C
:1047000008620198C08802010399086A1043086290
:104710000399486840F2004290434860019800893C
:10472000820003994868104348600399486840F63E
:1047300000029043486001984089820003994868CC
:1047400010434860FFE70398F64988420ED1FFE71F
:104750000399486840F200429043486001980089FC
:1047600082000399486810434860FFE78EE0039990
:10477000086A40F20012904308620399C869032254
:104780009043C8610198008802020399086A1043A7
:1047900008620399086A40F2002290430862019877
:1047A000808802020399086A104308620398DC4972
:1047B000884235D1FFE70399086A40F200429043EE
:1047C00008620198408802020399086A104308624F
:1047D0000399086A40F60002904308620198C08875
:1047E00002020399086A104308620399486841F27B
:1047F00000029043486001980089020103994868CB
:10480000104348600399486842F2000290434860B0
:104810000198408902010399486810434860FFE706
:1048200034E00399086A41F2000290430862039958
:10483000C86940F200329043C861019800880203C1
:104840000399086A104308620399086A42F2000259
:10485000904308620198808802030399086A104314
:1048600008620398F74988420ED1FFE70399486828
:1048700044F2000290434860019800898201039944
:10488000486810434860FFE700E0FFE704B0704766
:10489000002C01400040014000440140004801401C
:1048A00084B0039002A8018001A90A8000880090CA
:1048B000032841D800998A0001A080188746C04685
:1048C00000F006B800F010B800F01CB800F026B8F0
:1048D0000399886970229043886101A8028803992E
:1048E00088691043886128E00399886947F20002CB
:1048F0009043886101A800880202039988691043E7
:1049000088611AE00399C86970229043C86101A8C0
:1049100002880399C8691043C8610EE00399C86909
:1049200047F200029043C86101A80088020203997F
:10493000C8691043C86100E0FFE704B07047000099
:1049400084B0039002A8018001920088009003289F
:104950001CD800998A0001A08018874600F006B88C
:1049600000F008B800F00AB800F00CB801980399FC
:1049700048630CE001980399886308E00198039963
:10498000C86304E001980399086400E0FFE704B0FD
:104990007047000084B0039002A8018001A90A803A
:1049A00000880090032841D800998A0001A080184F
:1049B0008746C04600F006B800F010B800F01CB8FA
:1049C00000F026B80399886908229043886101A8FD
:1049D0000288039988691043886128E003998869EF
:1049E00040F600029043886101A800880202039902
:1049F0008869104388611AE00399C86908229043C6
:104A0000C86101A802880399C8691043C8610EE013
:104A10000399C86940F600029043C86101A8008864
:104A200002020399C8691043C86100E0FFE704B0BF
:104A3000704781B00090009900200880009948805C
:104A4000009988800099C880009908810099488160
:104A500001B0704780B58AB00990099808907A49EA
:104A6000884226D0FFE708982C49884229D0FFE7E2
:104A70000898764988422CD0FFE708987149884207
:104A80000FD0FFE70898724988422BD0FFE70898BB
:104A9000704988422FD0FFE708986F49884232D08A
:104AA00039E025480790FFF785FA0798FFF770FA75
:104AB00032E020480690FFF77DFA0698FFF768FA83
:104AC0002AE01B480590FFF775FA0598FFF760FA92
:104AD00022E040F208400490FFF76CFA0498FFF7D8
:104AE00057FA19E040F210300390FFF763FA039889
:104AF000FFF74EFA10E00D480290FFF75BFA0298BC
:104B0000FFF746FA08E008480190FFF753FA0198CA
:104B1000FFF73EFA00E0FFE70AB080BD001000405A
:104B2000002C01400040014012030000110300006E
:104B300004040000010400000B03000081B0009099
:104B40000099086801229043086001B0704781B065
:104B500000900099086801221043086001B0704776
:104B600082B00190009100980088019988620198B4
:104B70003449884205D0FFE701983349884212D171
:104B8000FFE7019908687022904308600098428806
:104B900001990868104308600098828801990868A4
:104BA00010430860FFE7009880680199C862019887
:104BB0002449884219D0FFE701982349884214D03C
:104BC000FFE70198214988420FD0FFE7019820496B
:104BD00088420AD0FFE701981E49884205D0FFE7C6
:104BE00001981D4988420DD1FFE70199086840F2FC
:104BF0000032904308600098C28801990868104309
:104C00000860FFE701980F4988420FD0FFE701983D
:104C10000F4988420AD0FFE701980E49884205D023
:104C2000FFE701980C49884205D1FFE70098007B17
:104C300001990863FFE7019948690122104348611F
:104C400002B07047002C01400004004000200040EA
:104C500000400140004401400048014080B584B05C
:104C6000039002A80180019200880090032800D9D7
:104C7000C9E000998A0001A08018874600F006B8B4
:104C800000F030B800F05EB800F08BB80399086A05
:104C90000122904308620399086A0A239843086234
:104CA000019803880399086A184308620399886980
:104CB00003239843886101984388039988691843BE
:104CC000886103998869F023984388610198C088B6
:104CD000030103998869184388610399086A10439E
:104CE000086291E00399086A1022904308620399D0
:104CF000086AA02398430862019800880301039979
:104D0000086A184308620399886940F2003398439F
:104D10008861019840880302039988691843886173
:104D2000039988694FF20003984388610198C0880D
:104D3000030303998869184388610399086A10433B
:104D4000086261E00399086A40F200129043086229
:104D50000399086A40F60023984308620198008886
:104D600003020399086A184308620399C869032378
:104D70009843C861019843880399C8691843C8617A
:104D80000399C869F0239843C8610198C08803015A
:104D90000399C8691843C8610399086A10430862F7
:104DA00032E00399086A41F20002904308620399D5
:104DB000086A4AF2000398430862019800880303D6
:104DC0000399086A184308620399C86940F20033DE
:104DD0009843C8610198408803020399C869184341
:104DE000C8610399C8694FF200039843C8610198EC
:104DF000C08803030399C8691843C8610399086A06
:104E00001043086200E0FFE7039802A90988019AAD
:104E10009288FFF76DFB04B080BD82B001900091D5
:104E2000009A0199C8681043C86002B0704782B008
:104E3000019000910098C0430199086102B0704749
:104E400084B0029001910298C068019908400090D6
:104E5000029800690199084207D0FFE7009820B145
:104E6000FFE703A90120087003E003A900200870F0
:104E7000FFE703A8007804B0704782B0019068464D
:104E800001700078012807D1FFE70199486C48F2CA
:104E900000021043486406E00199486C48F20002A1
:104EA00090434864FFE702B07047000081B0009073
:104EB0000099002008800099488000998880009A15
:104EC000034991600099C8800099087301B0704748
:104ED000FFFF000080B588B0079006910020059084
:104EE00004900390029007980190374988420AD0B5
:104EF000FFE70198354988420AD1FFE70520FEF710
:104F0000B9FE059005E00220FEF7B4FE059000E032
:104F1000FFE7079800680004002818D5FFE7059808
:104F2000400006994A088018B0FBF1F00290029800
:104F300013490840049002980007400F039004A80A
:104F4000008803A9098808430799C86016E00598F6
:104F500006994A088018B0FBF1F0029002980849BF
:104F60000840049002980F210840039004A800888C
:104F700003A9098808430799C860FFE708B080BD06
:104F8000F0FF000080B584B00390039802900E49B2
:104F900088420DD0FFE702980C49884210D1FFE704
:104FA0000C480190FFF706F80198FEF7F1FF08E0C2
:104FB00007480090FEF7FEFF0098FEF7E9FF00E0CB
:104FC000FFE704B080BDC046004400400038014007
:104FD000110400000E03000081B0009000990868E1
:104FE00001221043086001B0704782B00190009127
:104FF000019908680122904308600199086840F20D
:10500000006290430860009A0199086810430860A4
:1050100002B0704782B001900091019908680422A3
:1050200090430860009A019908681043086002B034
:10503000704782B001900091019908680122904365
:1050400008600199486843F2000290434860009A62
:10505000019948681043486002B0704782B00190DF
:10506000009101990868082290430860009A01990C
:1050700008681043086002B0704782B00190009148
:10508000019908680122904308600199086841F27B
:10509000000290430860009A019908681043086074
:1050A00002B070470FB410B504A9074B02AA0398C9
:1050B00000F0ECF8044602A9002000F083FC204632
:1050C00010BC08BC04B01847C55900082021020CC8
:1050D00001D010211046020A01D0104608390209F9
:1050E00001D01046091F820801D01046891E4208CF
:1050F00001D0881E7047081A704702E008C8121FC6
:1051000008C1002AFAD170477047002001E001C1B0
:10511000121F002AFBD17047F0B51FB486B0099862
:10512000089A030D0021024314D05148514A18181F
:10513000504305141198012810981AD0281A401CC1
:1051400000264D4F4D49009601910490002812DA37
:10515000444211E01198012449A3012801D110987B
:10516000C1430698119A84600360C26041600BB02D
:10517000F0BD4042E4E70446210500203F4A001C00
:1051800051410391029012E0E00707D032463B46BE
:1051900001990098FBF752FA0191009032463B4684
:1051A00010461946FBF74AFA06460F466410002CD3
:1051B000EAD10498039B0028029A0999089806DA14
:1051C000FBF73CFA019B009AFBF738FA05E0FBF786
:1051D0009DFA019B009AFBF799FA04460E460022BD
:1051E000284BFBF72BFB03D80020C043014607E008
:1051F0000022254B20463146FBF76EF9FBF7FEFAFD
:10520000102409E0002C0ADB0A220023FBF7F3F844
:10521000079B30321A55641E02460A43F2D111220E
:10522000641C079B121B1C19119B012B03D001232B
:1052300008430ED10AE0084304D01120109000204A
:10524000119077E71098151A6D1E0BE010988242A6
:1052500002DD00236D1C03E0824201DA00236D1E93
:10526000002BEED0069811998260C16030C07EE7B5
:1052700001FCFFFF104D0000000014400000F03F53
:10528000300000000000F0430000E03FFFB597B0A1
:105290000646002518E2252877D100242746FD4937
:1052A000049400E00443761C32780120203A9040B8
:1052B0000842F7D130782A280ED0022230780146F1
:1052C0003039092916D804990A235943303940182E
:1052D0001443761C0490F1E7189802C804911890C2
:1052E000002904DA012040030443484204900220CC
:1052F0000443761C30782E2814D10420044370789F
:10530000761C2A2809D11898761C80C8189009E0C4
:105310000A214F43303FC719761C30780146303997
:105320000929F5D930786C2810D006DC4C281AD021
:1053300068280ED06A2817D104E0742813D07A2880
:1053400012D110E00120400504430CE001210905C1
:1053500001E0032109050C437178814203D101204A
:1053600000052418761C761C3078119066280BD026
:1053700013DC58287DD009DC00287BD04528F6D0E6
:105380004628F4D047281AD1A5E118E0632835D083
:10539000642870D0652812D19DE170286CD008DC9B
:1053A0006728F1D069287BD06E280DD06F2806D1F0
:1053B000BAE073282ED0752871D0782859D01A9A5F
:1053C000199990476D1C7EE16002400F022809D0B8
:1053D00003280DD00428189801680DD00D60001D19
:1053E000189070E11898EA1701680D604A60F6E7B6
:1053F000189801680D80F2E70D70F0E718986A467A
:1054000001781172001D18900020507202A80090BF
:10541000012005E0189802C8189000200091C043B0
:1054200061070DD5002101E00199491C0191B942A4
:1054300012DA8142F8DB009A515C0029F4D10BE0CA
:10544000002101E00199491C01918142FADB019A96
:105450000099895C0029F5D1019904981A9B471A93
:1054600021463846199A00F097FA019940194518D3
:105470000BE04FE02CE113E04EE00098009900783B
:10548000491C00911A9A199990470198401E019061
:10549000401CF2D1214638461A9B199A10E137E098
:1054A0000A200021009001916002410F022907D0DB
:1054B000189A01CA1892C2179446032908D00AE024
:1054C0001898C01DC108C90005C91891944607E085
:1054D00000B2C2179446042902D140B2C1178C46CB
:1054E00000226146944506DA0A4600214042914175
:1054F0008C462D2102E0210504D52B216A4611732B
:10550000012103E0E10701D02021F7E7029155E0F6
:105510000A200AE0102008E010200090002104205A
:1055200004430191082703E0082000210191009025
:105530006002410F022907D0189A01CA189200226E
:105540009446032908D008E01898C01DC108C90076
:1055500005C91891944603E080B2042900D1C0B275
:1055600000210291210729D51199702906D0009AAE
:105570001021019B4A401A4305D00EE040216A46A3
:105580001173012108E06146014306D030216A46CB
:1055900011731199517302210291009A0821019B04
:1055A0004A401A430AD16146014301D1610705D53A
:1055B00030216A46117301217F1E029111995829E9
:1055C00004D035A10E910DA90D910DE037A1F9E799
:1055D0006146019B009AFAF70EFF0E9B8C469B5C7E
:1055E0000D9A521E0D92137061460143F0D10D9831
:1055F00005A9081A20300190600703D50120000496
:10560000844300E001270198874201DD381A00E059
:105610000020019900904118029809180498401A36
:105620000490E00306D421461A9B199A049800F0CE
:10563000B3F94519002706E003A81A9AC05D199925
:1056400090476D1C7F1C02988742F5DBE0030CD568
:1056500021461A9B199A049800F09EF9451904E016
:105660001A9A3020199990476D1C0099481E009095
:105670000029F5DC08E00D980D990078491C0D9182
:105680001A9A199990476D1C0199481E019000299A
:10569000F1DC63E10928010030313233343536372B
:1056A000383961626364656600000000303132336E
:1056B000343536373839414243444546000000000E
:1056C00000F05AF94519761C3078002800D0E2E540
:1056D00028461BB0F0BD600700D406271898C01DEF
:1056E000C108C90048680A680831C30FDB07189170
:1056F000190001D09CA108E0210501D59BA104E07F
:10570000E10701D09AA100E09AA1430011985B083B
:10571000109165280CD006DC452809D046281DD0FC
:10572000472841D141E0662818D067283CD13CE0A9
:105730000021112F01DB112000E0781C0191009065
:1057400008A911A8FFF7E8FC139905910021119A07
:1057500015927F1C12980197009150E00120C0071C
:1057600003900120019008A9009711A8FFF7D4FC2D
:10577000139A149905920022119B00921298159386
:10578000059A0192002901D0104602E0791C4018C8
:105790000190381A01D5019804E04042401E009063
:1057A000781C0190C01B029043E0012F00DA012712
:1057B0000021112F01DD112000E0384601910090F9
:1057C00008A911A8FFF7A8FC13990591119A0021C7
:1057D000129815920091019721070CD40599B942AE
:1057E00001DB019900E00191012904DD159A491EB0
:1057F000515C302906D0B84201DA011D05DA0121D9
:10580000029115E00199491EEDE7002805DC009999
:10581000411800910199091A03E0019A411C914233
:1058200000DD01910099401A401C02900120C00740
:105830000390200706D402990198814202DB0020E0
:10584000C043029000206946C87707AF0121039842
:105850000337C907884224D0022011902B201290D0
:10586000039800280CDA404203902D20129007E0A4
:105870000A210398FBF70EF830317F1E0390397030
:105880001199481E11900029F2DC03980028EFD1ED
:10589000791E129808703078202108404530BF1ECC
:1058A000387006A8C01BC01D03901098007800280F
:1058B00000D00120019941180298C01709180398D7
:1058C00009180498401A401E0490E00306D42146AB
:1058D0001A9B199A049800F05FF8451910980078FF
:1058E000002803D01A9A199990476D1CE00324D51B
:1058F00021461A9B199A049800F04EF845191CE0AD
:105900000098002807DB00990598884203DD159868
:10591000405C199901E0199930201A9A9047009833
:105920006D1C401C00900298401E0290002804D17B
:105930001A9A2E20199990476D1C0199481E0190C2
:105940000029DDDC05E038781A9A7F1C1999904708
:105950006D1C0399481E03900029F4DC21461A9B14
:10596000199A0498ACE600002D0000002B000000FE
:105970002000000000000000F8B5044600251E4687
:105980001746880404D405E039462020B0476D1C32
:10599000641EF9D52846F8BDFFB50446002581B040
:1059A0001E46C80301D5302700E02027880404D50F
:1059B00005E038460399B0476D1C641EF9D52846AA
:1059C00005B0F0BD0A68531C0B60107070470000F2
:1059D00000000000000000000000000004040404B7
:1059E00004000004000014140A000000000000007D
:1059F000000000000A0A1F0A0A1F0A0A0000000429
:105A00000E1505060C14150E0400000012150D15D8
:105A10002E2C2A1200000000040A0A361515291639
:105A20000000020201000000000000000000100859
:105A30000804040404040808100002040408080808
:105A400008080404020000000004150E0E150400EE
:105A5000000000000008083E0808000000000000E8
:105A60000000000000000202010000000000003FF2
:105A70000000000000000000000000000000000224
:105A800000000020101008080404020201000000B9
:105A90000E1111111111110E000000000406040472
:105AA0000404040E000000000E1111080402011F7E
:105AB000000000000E11100C1010110E000000006C
:105AC000080C0C0A091F081C000000001F01010F30
:105AD0001110110E000000000C12010D1311110E17
